:100000000C9458000C9480000C9480000C94800098
:100010000C9480000C9480000C9480000C94800060
:100020000C9480000C9480000C9480000C94800050
:100030000C9480000C9480000C9480000C94800040
:100040000C948D020C9480000C9480000C94800021
:100050000C9480000C9480000C9480000C94800020
:100060000C94D7020C9480000000000025002800AA
:100070002B00040404040404040402020202020229
:10008000030303030303010204081020408001025C
:1000900004081020010204081020000000080002DB
:1000A0000100000304070000000000000000F60348
:1000B00011241FBECFEFD8E0DEBFCDBF11E0A0E01E
:1000C000B1E0E8E6FAE002C005900D92A833B1076E
:1000D000D9F722E0A8E3B1E001C01D92AB30B2072E
:1000E000E1F710E0C8E5D0E004C02197FE010E94CE
:1000F0002C05C735D107C9F70E940F040C943205AF
:100100000C9400002091F40181E0213208F044C0F9
:100110008091D0018111FCCF8091F30192E0909306
:10012000D00191E09093CF019FEF9093CE01109278
:10013000CD012093CC01A3EDB1E0ECEAF1E090E039
:10014000291331C01092AB019091AB01880F892B1C
:100150008093AB018091AA01813049F51092AA01E8
:100160008091AB018093BB008091BC0083FDF8CFF0
:1001700085EC8093BC008091D0018230E1F38091C6
:10018000CE018F3FB1F08091CE018032A1F08091FD
:10019000CE01803391F084E01092D2011092F401EC
:1001A0001092D10108953D9131939F5FC9CF85EEA3
:1001B000E0CF80E0F1CF82E0EFCF83E0EDCF90E0C1
:1001C000FC01E656FF4F2491FC01EA57FF4F3491A2
:1001D000FC01EE58FF4FE491EE23B1F0222339F0F9
:1001E0002330E9F090F4213001F1223011F1F0E0F8
:1001F000EE0FFF1FE859FF4FA591B4918FB7F89408
:10020000EC913E2B3C938FBF08952730A9F0283006
:10021000C9F0243061F7809180008F7D03C0809108
:1002200080008F7780938000E2CF84B58F7784BD84
:10023000DECF84B58F7DFBCF8091B0008F77809328
:10024000B000D5CF8091B0008F7DF9CF089508958B
:10025000AF92BF92CF92DF92EF92FF920F931F93D4
:10026000CF93DF936C017B018B01040F151FEB0112
:100270005E01AE18BF08C017D10759F06991D601C9
:10028000ED91FC910190F081E02DC6010995892B3B
:1002900079F7C501DF91CF911F910F91FF90EF90FA
:1002A000DF90CF90BF90AF9008953FB7F8948091C2
:1002B000A0019091A101A091A201B091A30126B546
:1002C000A89B05C02F3F19F00196A11DB11D3FBF8E
:1002D000BA2FA92F982F8827BC01CD01620F711D5D
:1002E000811D911D42E0660F771F881F991F4A9557
:1002F000D1F70895089585ED8093BC008091BC00EE
:1003000084FDFCCF1092D001089520917801260F32
:100310003327331F21323105ECF42091D001FC0149
:1003200090E080E0243069F082E00895A0917801A7
:100330002191AC01485A5E4FA40FB52FB11D2C93EB
:100340000196861798F380917801680F6093780181
:1003500080E0089581E008950895E091A9018091D9
:10036000A801E81730F4F0E0E85CFE4F808190E0EF
:1003700008958FEF9FEF08959091A9018091A801B2
:100380002FEF3FEF981748F4E92FF0E0E85CFE4FBD
:10039000208130E09F5F9093A901C9010895809169
:1003A000A8019091A901891B990B0895CF92DF9222
:1003B000EF92FF920F931F93CF93DF937C01CB01BA
:1003C0008A012091D101222389F0EB016B01C40E37
:1003D000D51ECC15DD0569F06991D701ED91FC9131
:1003E0000190F081E02DC7010995F3CF642F0E94A1
:1003F0008501C801DF91CF911F910F91FF90EF9080
:10040000DF90CF900895CF93DF931F92CDB7DEB7E3
:1004100069832091D1012223F9F02091F401203247
:1004200058F021E030E0FC013383228390E080E04B
:100430000F90DF91CF9108958091D201E82FF0E0E5
:10044000ED52FE4F998190838F5F8093D20180930C
:10045000F40181E090E0ECCF61E0CE0101960E94D2
:100460008501F7CFCF93DF93EC0181E08093D10139
:100470008EE38093F3011092D2011092F40168810F
:1004800085EF91E00E940302698185EF91E00E946F
:100490000302DF91CF910C948200CF93DF9300D0C1
:1004A000CDB7DEB790E899838A83CE0101960E948A
:1004B00032020F900F90DF91CF910895CF93DF9389
:1004C00000D0CDB7DEB780E489836A83CE01019680
:1004D0000E94320281E090E00F900F90DF91CF9167
:1004E0000895CF93C62F91E09093D10192E6909317
:1004F000F3011092D2011092F401682F85EF91E080
:100500000E9403026C2F85EF91E00E940302CF91BD
:100510000C94820090E080E008951F920F920FB635
:100520000F9211242F933F938F939F93AF93BF9379
:1005300080919C0190919D01A0919E01B0919F019D
:1005400030919B0123E0230F2D3758F50196A11D13
:10055000B11D20939B0180939C0190939D01A093DA
:100560009E01B0939F018091A0019091A101A09163
:10057000A201B091A3010196A11DB11D8093A0011C
:100580009093A101A093A201B093A301BF91AF9159
:100590009F918F913F912F910F900FBE0F901F90C1
:1005A000189526E8230F0296A11DB11DD2CF1F92E8
:1005B0000F920FB60F9211242F933F934F935F9397
:1005C0006F937F938F939F93AF93BF93EF93FF931B
:1005D0008091B900887F803609F44AC0F0F58832EE
:1005E00009F4A7C018F5803109F49BC0B8F488233A
:1005F00009F4F9C0883009F494C0FF91EF91BF91DC
:10060000AF919F918F917F916F915F914F913F91AA
:100610002F910F900FBE0F901F901895883109F4FD
:1006200088C0803251F78093CE0114C0803409F421
:100630009DC040F48033B9F38833F9F68093CE013E
:1006400085ECB0C0803509F485C0883509F496C0C2
:10065000883499F60E947B01D0CF883909F48CC088
:1006600038F5883729F050F4883611F0803729F6AC
:1006700083E08093D00110929A0157C0883809F422
:100680007BC0803919F0803809F0B7CF80919A018A
:10069000803208F071C0E0919A0181E08E0F809362
:1006A0009A018091BB00F0E0E658FE4F80833DC088
:1006B000803B39F0E0F4803A09F479C0883A09F0D7
:1006C0009CCF84E08093D001109279011092780140
:1006D000E091A601F091A70109958091780181111F
:1006E0000FC081E0809378011092580109C0803CCE
:1006F00009F4A6CF883C09F4A3CF883B09F07DCF4D
:10070000E091790181E08E0F80937901F0E0E85A61
:10071000FE4F80818093BB00909179018091780198
:1007200029C08091AB018093BB0085EC8093BC0015
:1007300064CF9091CD018091CC01981758F5E0914C
:10074000CD0181E08E0F8093CD01F0E0E455FE4FA6
:100750008081E9CFE091CD0181E08E0F8093CD01C2
:100760008091BB00F0E0E455FE4F80839091CD0175
:100770008091CC019817C8F285E8D8CFE091CD01DF
:1007800081E08E0F8093CD018091BB00F0E0E455B5
:10079000FE4F80838091CF0181115CCF81E08093F7
:1007A000AA0184EA8093BC001092D00126CF85EC88
:1007B0008093BC001092D00180919A01803230F475
:1007C000E0919A01F0E0E658FE4F108260919A01A4
:1007D00070E0E091A401F091A5018AE791E009950C
:1007E00010929A010ACF1092CE0134CFE5EFF1E0DA
:1007F0001382128288EE93E0A0E0B0E084839583B8
:10080000A683B78384E091E091838083E1E0F2E006
:100810001382128286E191E0918380830895CF93C1
:10082000DF9300D0CDB7DEB7789484B5826084BD05
:1008300084B5816084BD85B5826085BD85B58160E4
:1008400085BD80916E00816080936E001092810062
:10085000809181008260809381008091810081601D
:1008600080938100809180008160809380008091DE
:10087000B10084608093B1008091B000816080936A
:10088000B00080917A00846080937A0080917A0031
:10089000826080937A0080917A00816080937A00F0
:1008A00080917A00806880937A001092C100109243
:1008B000A9011092A8011092D2011092F401109295
:1008C000D00181E08093CF011092AA0182E10E94C1
:1008D000DF0083E10E94DF008091B9008E7F80936A
:1008E000B9008091B9008D7F8093B90088E480932E
:1008F000B80085E48093BC0086E291E09093A70164
:100900008093A60187E291E09093A5018093A401D2
:1009100080910502982F98609093050212E0109341
:10092000090210920A02EBE3FDE03197F1F78862C9
:100930000E944D028BE496E40197F1F78091050245
:1009400080620E944D0283E592E00197F1F7809169
:10095000050280620E944D028091050280620E9421
:100960004D0284E0809306028CE00E944D0281E0FB
:100970000E944D028BE39FE10197F1F7109307026C
:1009800086E00E944D0260E080E00E9471026FEFFD
:1009900088E00E94710260E281E00E9471026FEFC4
:1009A00084E00E9471026FEF83E00E9471026FEF9A
:1009B00082E00E9471026FEF84E00E94710260E0A9
:1009C00083E00E94710260E082E00E94710249E0CF
:1009D00050E06EE171E081E092E00E94280180E841
:1009E000898380EC8A83CE0101960E9432024FE017
:1009F00050E068E271E081E092E00E9428010E94EC
:100A000055014B015C0188EEC82E83E0D82EE12C05
:100A1000F12C0E945501681979098A099B09683EE1
:100A2000734081059105A8F321E0C21AD108E108BD
:100A3000F10888EE880E83E0981EA11CB11CC11439
:100A4000D104E104F10429F700E010E001151105DB
:100A5000E9F30E940000FACFEE0FFF1F0590F4911A
:080A6000E02D0994F894FFCF8A
:100A6800000000000302D6018A02AC01CF01BC01DC
:100A7800AD01000000005E0228018A027A01535489
:100A88004932442D53494E004C5943454520425262
:080A980045515549474E590034
:00000001FF
